:020000040800F2
:1000000000500020551A0008D1040008D30400084D
:10001000D5040008D7040008D90400080000000037
:10002000000000000000000000000000DB040008E9
:10003000DD04000800000000DF040008E1040008FF
:100040009D1A00089D1A00089D1A00089D1A0008B4
:100050009D1A00089D1A00089D1A00089D1A0008A4
:100060009D1A00089D1A00089D1A00089D1A000894
:100070009D1A00089D1A00089D1A00089D1A000884
:100080009D1A00089D1A00089D1A00089D1A000874
:100090009D1A00089D1A00089D1A00089D1A000864
:1000A0009D1A00089D1A00089D1A00089D1A000854
:1000B0002D0500089D1A00089D1A00089D1A0008C9
:1000C0009D1A00089D1A00089D1A00089D1A000834
:1000D0009D1A00089D1A00089D1A00089D1A000824
:1000E0009D1A00089D1A00089D1A000800000000D3
:1000F0000000000000000000000000000000000000
:0C01000000000000000000005FF808F1A3
:10010C000348044B834202D0034B03B1184770479A
:10011C0014000020140000200000000005480649CF
:10012C000B1AD90F01EBA301491002D0034B03B1F9
:10013C001847704714000020140000200000000035
:10014C0010B5064C237843B9FFF7DAFF044B13B113
:10015C000448AFF300800123237010BD140000206D
:10016C0000000000A01A000808B5044B1BB104499C
:10017C000448AFF30080BDE80840CFE70000000062
:10018C0018000020A01A000870B50D4E0D4D761BFE
:10019C00B61006D0002455F8043B01349847A6420B
:1001AC00F9D1094E094D01F075FC761BB61006D03D
:1001BC00002455F8043B01349847A642F9D170BD90
:1001CC00E41A0008E41A0008E81A0008E41A000807
:1001DC00830730B548D0541E002A3FD00346CAB21C
:1001EC0001E0013C3AD303F8012B9D07F9D1032C14
:1001FC002DD9CDB245EA05250F2C45EA054536D952
:10020C00A4F1100222F00F0C03F1200EE6444FEA89
:10021C00121C03F1100242E9045542E90255103256
:10022C007245F8D10CF1010214F00C0F03EB021221
:10023C0004F00F0C13D0ACF1040323F003030433CC
:10024C00134442F8045B9342FBD10CF003042CB131
:10025C00CAB21C4403F8012B9C42FBD130BD64464E
:10026C001346002CF4D1F9E703461446BFE71A46AF
:10027C00A446E0E720F0030110F00300C0F10000F9
:10028C0051F8043B00F1040C4FEACC0C6FF0000267
:10029C001CBF22FA0CF213434FF0010C4CEA0C2C4D
:1002AC004CEA0C4CA3EB0C0222EA030212EACC122D
:1002BC0004BF51F8043B0430F4D0C2F1000102EA4F
:1002CC000102B2FA82F2C2F11F0200EBD2007047B7
:1002DC0082B00A4B9A6942F020029A619A6902F044
:1002EC0020020092009A9A6942F004029A619B697A
:1002FC0003F004030193019B02B07047001002400D
:10030C00024A136801331360704700BF30000020AD
:10031C0072B6FEE700B58BB00023069307930893E3
:10032C0009930493059300930193029303931D483F
:10033C004FF080420260436083604FF6FF72C260F0
:10034C000361836100F0FAFA08BB4FF48053069303
:10035C0006A9144800F0E4FBD8B9124800F01AFBC7
:10036C00C8B900230493059304A90E4800F0E2FCDD
:10037C0098B90022009201230193029203926946DC
:10038C00084800F05FFB50B90BB05DF804FBFFF7B9
:10039C00BFFFFFF7BDFFFFF7BBFFFFF7B9FFFFF78D
:1003AC00B7FF00BF3400002008B50A480A4B0360B1
:1003BC004FF4E133436000238360C36003610C227C
:1003CC0042618361C36101F0A8FA00B908BDFFF76F
:1003DC009FFF00BF7C0000200038014000B591B0A9
:1003EC002822002106A8FFF7F3FE002301930293B5
:1003FC00039304930593012206924FF480330793E1
:10040C000A9202220D920E934FF4E0130F9306A85A
:10041C0000F03CFD80B90F230193022102910023CF
:10042C0003934FF480620492059301A800F060FFDF
:10043C0020B911B05DF804FBFFF76AFFFFF768FF06
:10044C0008B500F0D5FCFFF7C9FFFFF741FFFFF738
:10045C0061FFFFF7A9FF0021154800F0EFFB154DD8
:10046C002846FFF707FF144C4FF0FF3382B22946A2
:10047C00204601F082FA114B1D682846FFF7FAFE60
:10048C004FF0FF3382B22946204601F076FA0C4D2C
:10049C002846FFF7EFFE4FF0FF3382B22946204685
:1004AC0001F06BFA4FF47A7000F0C6FCD7E700BF8E
:1004BC0034000020040000207C000020C400002038
:1004CC0000000020FEE7FEE7FEE7FEE7FEE77047D0
:1004DC007047704708B50D4A136801331360B3F5C4
:1004EC007A7F02D000F096FC08BD094B1968094AC6
:1004FC001368CB1A08480360C3EB03139800074B2F
:10050C0018601160014B00221A60EBE7CC00002050
:10051C0030000020D0000020C8000020C4000020C3
:10052C0008B5024800F019F908BD00BF34000020DE
:10053C0082B00E4B9A6942F001029A619A6902F0FC
:10054C0001020092009ADA6942F08052DA61DB69AA
:10055C0003F080530193019B054A536823F0E06339
:10056C0043F00073536002B0704700BF00100240AC
:10057C000000014000B587B000230293039304935D
:10058C0005930368B3F1804F02D007B05DF804FB0C
:10059C0003F50433DA6942F00102DA61DA6902F038
:1005AC0001020092009A9A6942F004029A619B69D6
:1005BC0003F004030193019B0123029302A9064853
:1005CC0000F072FF002211461C2001F091F81C2053
:1005DC0001F0C6F8D9E700BF0008014010B586B09D
:1005EC00002302930393049305930268174B9A42DA
:1005FC0001D006B010BD03F558439A6942F480420D
:10060C009A619A6902F480420092009A9A6942F0C7
:10061C0004029A619B6903F004030193019B4FF45C
:10062C00007302930223039303230593084C02A93E
:10063C00204600F039FF4FF48063029300230393AC
:10064C00049302A9204600F02FFFD2E700380140A6
:10065C000008014010B4036A046A24F00104046227
:10066C00846924F0F00C4CEA021223F00A030B43C9
:10067C008261036210BC704730B4056A046A24F0CE
:10068C0010040462846924F4407C4CEA022C2CF49F
:10069C00704C1B039BB243EA0C0325F0A005090127
:1006AC0001F0A00129438361016230BC704710B492
:1006BC00036A046A24F010040462846924F4704C04
:1006CC004CEA023223F0A00343EA01138261036275
:1006DC0010BC704730B4056A046A24F48074046258
:1006EC00C46924F0030C4CEA020C2CF0F00C1B0136
:1006FC00DBB243EA0C0325F40075090201F4007126
:10070C002943C361016230BC704730B4056A046A86
:10071C0024F480540462C46924F4407C4CEA022C16
:10072C002CF4704C1B039BB243EA0C0325F40055CC
:10073C00090301F400512943C361016230BC7047C5
:10074C00836823F070030B4343F007038360704707
:10075C007047704770477047704770B50446036820
:10076C00DE681D6915F0020F10D016F0020F0DD0C7
:10077C006FF002021A610123037703689B6913F07F
:10078C00030F5ED0FFF7BCFD0023237715F0040F99
:10079C0012D016F0040F0FD023686FF004021A6108
:1007AC000223237723689B6913F4407F4FD02046A4
:1007BC00FFF7A6FD0023237715F0080F12D016F0D3
:1007CC00080F0FD023686FF008021A6104232377F7
:1007DC002368DB6913F0030F40D02046FFF790FD30
:1007EC000023237715F0100F12D016F0100F0FD036
:1007FC0023686FF010021A61082323772368DB69E2
:10080C0013F4407F31D02046FFF77AFD0023237785
:10081C0015F0010F02D016F0010F2DD115F0800F3D
:10082C0002D016F0800F2FD115F0400F02D016F029
:10083C00400F31D115F0200F02D016F0200F33D11C
:10084C0070BDFFF787FF2046FFF785FF9CE720462A
:10085C00FFF780FF2046FFF77EFFABE72046FFF750
:10086C0079FF2046FFF777FFBAE72046FFF772FFC4
:10087C002046FFF770FFC9E723686FF001021A6189
:10088C002046FFF766FFC9E723686FF080021A6104
:10089C00204600F086FAC7E723686FF040021A6121
:1008AC002046FFF759FFC5E723686FF020021A6155
:1008BC00204600F075FAC3E703681F4A90420AD03D
:1008CC00B0F1804F07D0A2F59432904203D002F5DC
:1008DC008062904203D123F070034A681343164A96
:1008EC0090420AD0B0F1804F07D0A2F594329042DA
:1008FC0003D002F58062904203D123F44073CA689E
:10090C00134323F080034A69134303608B68C3626B
:10091C000B688362084B98420AD001234361036938
:10092C0013F0010F03D0036923F001030361704737
:10093C000B690363F1E700BF002C014040B310B515
:10094C00044690F83D30F3B1022384F83D30214643
:10095C0051F8040BFFF7B0FF012384F8463084F8FC
:10096C003E3084F83F3084F8403084F8413084F8CD
:10097C00423084F8433084F8443084F8453084F8AD
:10098C003D30002010BD80F83C30FFF7F3FDDBE775
:10099C000120704740B310B5044690F83D30F3B1D8
:1009AC00022384F83D30214651F8040BFFF784FFF5
:1009BC00012384F8463084F83E3084F83F3084F8C4
:1009CC00403084F8413084F8423084F8433084F865
:1009DC00443084F8453084F83D30002010BD80F858
:1009EC003C30FFF7B5FEDBE70120704770B4056AB9
:1009FC00046A24F0010404628469114EB0420DD0E3
:100A0C00B0F1804F0AD0A6F59436B04206D006F568
:100A1C008066B04202D044F0010202E024F00304EC
:100A2C00224322F0F0021B01DBB2134325F00A0231
:100A3C0001F00A0111438361016270BC704700BF71
:100A4C00002C014038B590F83C30012B5AD00446AC
:100A5C000D46012380F83C3052B1042A1AD0082AE2
:100A6C002BD00C2A3BD00120002384F83C3038BD1D
:100A7C00CB684A6809680068FFF7B8FF2268936979
:100A8C0023F00C03936122689369A9680B4393616B
:100A9C000020E9E7CB684A6809680068FFF7ECFDBD
:100AAC002268936923F44063936122689369A9686F
:100ABC0043EA012393610020D6E7CB684A680968B2
:100ACC000068FFF707FE2268D36923F00C03D3619B
:100ADC002268D369A9680B43D3610020C4E7CB68B3
:100AEC004A6809680068FFF710FE2268D36923F48E
:100AFC004063D3612268D369A96843EA0123D361B7
:100B0C000020B1E70220B2E710B4846824F47F4CD3
:100B1C0042EA03220A4342EA0C02826010BC70478C
:100B2C0090F83C30012B78D010B50446012380F8A6
:100B3C003C30022380F83D300268936823F47F43F5
:100B4C0023F0770393600B68602B4CD029D8402B93
:100B5C0054D00CD9502B22D1CA6849680068FFF7D1
:100B6C0079FD50212068FFF7EBFD002005E0202BDC
:100B7C000DD009D9302B0AD00120012384F83D3047
:100B8C00002384F83C3010BD0BB1102B05D1194655
:100B9C002068FFF7D5FD0020EFE70120EDE70120ED
:100BAC00EBE7B3F5805F34D0B3F5005F0CD1CB68C5
:100BBC004A6889680068FFF7A7FF2268936843F4C6
:100BCC00804393600020D8E7702B24D1CB684A680F
:100BDC0089680068FFF798FF2268936843F07703F1
:100BEC0093600020C9E7CA6849680068FFF75FFD99
:100BFC0060212068FFF7A4FD0020BEE7CA684968A1
:100C0C000068FFF727FD40212068FFF799FD0020C1
:100C1C00B3E70020B1E70120AFE70220704701F0F5
:100C2C001F01012303FA01FC036A23EA0C0303628C
:100C3C00036A02FA01F10B430362704738B50446AC
:100C4C0090F83E00C0B294F83F3094F84220D2B2F3
:100C5C0094F843C00D4609BB01285ED1012A5DD131
:100C6C00022384F83E3084F84230002D39D0042D14
:100C7C0048D0012200212068FFF7D1FF0122042176
:100C8C002068FFF7CCFF2268D36843F00203D360DF
:100C9C002268D36843F00403D3602CE0DBB25FFA24
:100CAC008CFC042912D001283DD1012B36D1012A0C
:100CBC003BD1BCF1010F3AD1022384F83E3084F8C9
:100CCC003F3084F8423084F84330CEE7012B26D1F4
:100CDC00BCF1010F25D1022384F83F3084F8433056
:100CEC00C3E7012200212068FFF799FF2268D3682F
:100CFC0043F00203D3602268136843F001031360CE
:100D0C0000200BE0012204212068FFF788FF2268F5
:100D1C00D36843F00403D360EDE7012038BD012014
:100D2C00FCE71846FAE70120F8E71846F6E7104604
:100D3C00F4E7000090F83C30012B2CD010B40123C8
:100D4C0080F83C30022380F83D3003685A689C6878
:100D5C0022F0700C0A6842EA0C025A6003680F4ACF
:100D6C0093420AD0B3F1804F07D0A2F5943293424C
:100D7C0003D002F58062934204D124F080044A68C7
:100D8C0014439C60012380F83D30002380F83C30F4
:100D9C00184610BC70470220704700BF002C014061
:100DAC007047704710B504460E4B18784FF47A73A1
:100DBC00B3FBF0F30C4A1068B0FBF3F000F0DCFC72
:100DCC0068B90F2C01D901200AE0002221464FF00E
:100DDC00FF3000F08DFC054B1C60002000E0012072
:100DEC0010BD00BF0A000020100000200C000020E5
:100DFC0008B5074A136843F010031360032000F092
:100E0C0065FC0F20FFF7CEFFFFF792FB002008BD1B
:100E1C0000200240034A1168034B1B780B441360FB
:100E2C00704700BFD40000200A000020014B186856
:100E3C00704700BFD400002038B50446FFF7F6FF1A
:100E4C000546B4F1FF3F02D0044B1B781C44FFF75E
:100E5C00EDFF401BA042FAD338BD00BF0A000020B2
:100E6C0082B0084B1B68084AA2FB03235B0A00FBF9
:100E7C0003F3019300BF019B5A1E0192002BF9D181
:100E8C0002B0704710000020D34D6210002800F013
:100E9C00F18170B582B00446036813F0010F2CD0B9
:100EAC00994B5B6803F00C03042B1DD0964B5B68CD
:100EBC0003F00C03082B12D06368B3F5803F41D0CC
:100ECC00002B55D103F1804303F504331A6822F447
:100EDC0080321A601A6822F480221A6037E08A4B3A
:100EEC005B6813F4803FE7D0874B1B6813F4003F1B
:100EFC0003D06368002B00F0BF81236813F0020F4E
:100F0C0075D0814B5B6813F00C0F5FD07E4B5B6828
:100F1C0003F00C03082B54D02369002B00F08A80BB
:100F2C007A4B01221A60FFF781FF0546764B1B684E
:100F3C0013F0020F75D1FFF779FF401B0228F5D98A
:100F4C0003209EE1704A136843F480331360636896
:100F5C0043B3FFF76BFF05466B4B1B6813F4003F65
:100F6C00CBD1FFF763FF401B6428F5D9032088E140
:100F7C00B3F5A02F09D0644B1A6822F480321A60A2
:100F8C001A6822F480221A60E1E703F18043A3F58A
:100F9C003C331A6842F480221A601A6842F4803298
:100FAC001A60D4E7FFF742FF0546574B1B6813F452
:100FBC00003FA2D0FFF73AFF401B6428F5D903206D
:100FCC005FE1514B5B6813F4803FA5D14E4B1B681E
:100FDC0013F0020F03D02369012B40F04F814A4AD2
:100FEC00136823F0F803616943EAC10313602368B3
:100FFC0013F0080F33D0A369002B5CD0434B0122B4
:10100C00C3F88024FFF712FF05463F4B5B6A13F0D1
:10101C00020F21D1FFF70AFF401B0228F5D903204C
:10102C002FE1394A136823F0F803616943EAC103DD
:10103C001360DCE7354B00221A60FFF7F7FE05461C
:10104C00314B1B6813F0020FD1D0FFF7EFFE401BA2
:10105C000228F5D9032014E10120FFF701FF2368D2
:10106C0013F0040F00F09680274BDB6913F0805FC0
:10107C0034D1254BDA6942F08052DA61DB6903F036
:10108C0080530193019B0125214B1B6813F4807F36
:10109C0026D0E368012B3DD0002B53D103F18043C4
:1010AC0003F504331A6A22F001021A621A6A22F05A
:1010BC0004021A6233E0154B0022C3F88024FFF7B8
:1010CC00B5FE0546104B5B6A13F0020FC7D0FFF755
:1010DC00ADFE401B0228F5D90320D2E00025D3E752
:1010EC000B4A136843F480731360FFF79FFE0646A8
:1010FC00074B1B6813F4807FCBD1FFF797FE801B47
:10110C006428F5D90320BCE00010024000004242E4
:10111C00007000405F4A136A43F001031362E368F6
:10112C0033B3FFF783FE06465A4B1B6A13F0020FCC
:10113C002FD1FFF77BFE801B41F288339842F3D905
:10114C0003209EE0052B09D0524B1A6A22F00102B3
:10115C001A621A6A22F004021A62E0E74D4B1A6A0C
:10116C0042F004021A621A6A42F001021A62D6E7CD
:10117C00FFF75CFE0646474B1B6A13F0020F08D0C4
:10118C00FFF754FE801B41F288339842F3D90320B9
:10119C0077E0E5B9E369002B72D03E4A526802F061
:1011AC000C02082A56D0022B17D03B4B00221A6691
:1011BC00FFF73CFE0446374B1B6813F0007F47D00B
:1011CC00FFF734FE001B0228F5D9032059E0314A01
:1011DC00D36923F08053D361DCE72F4B00221A66CE
:1011EC00FFF724FE05462B4B1B6813F0007F06D03F
:1011FC00FFF71CFE401B0228F5D9032041E0236AAF
:10120C00B3F5803F1AD023494B6823F47413226A38
:10121C00606A024313434B601F4B01221A66FFF7AF
:10122C0005FE04461B4B1B6813F0007F0ED1FFF725
:10123C00FDFD001B0228F5D9032022E0154A536856
:10124C0023F40033A1680B435360DCE7002018E063
:10125C00002016E0012B16D00E4B5B6803F4803196
:10126C00226A914211D103F47013626A93420ED137
:10127C00002006E001207047012002E0012000E080
:10128C00002002B070BD0120FBE70120F9E701202E
:10129C00F7E700BF00100240000042420F4B5B68B2
:1012AC0003F00C02082A01D00D487047C3F38342A7
:1012BC000C49885C13F4803F0BD0084B5B68C3F37C
:1012CC004043094AD35C064A02FB00F0B0FBF3F042
:1012DC007047064B03FB00F0704700BF0010024044
:1012EC0000127A00B81A0008C81A000800093D005C
:1012FC00002800F0A08070B50D460446524B1B68C8
:10130C0003F007038B420BD24F4A136823F00703F9
:10131C000B431360136803F007038B4240F08D807E
:10132C00236813F0020F17D013F0040F04D0474AB0
:10133C00536843F4E0635360236813F0080F04D040
:10134C00424A536843F460535360404A536823F055
:10135C00F003A1680B435360236813F0010F31D0E5
:10136C006368012B20D0022B25D0384A126812F06A
:10137C00020F64D035494A6822F0030213434B60D4
:10138C00FFF754FD0646314B5B6803F00C036268B3
:10139C00B3EB820F16D0FFF749FD801B41F2883367
:1013AC009842F0D9032045E0284A126812F4003F15
:1013BC00E0D101203EE0254A126812F0007FD9D11D
:1013CC00012037E0204B1B6803F00703AB420AD91E
:1013DC001D4A136823F007032B431360136803F0B3
:1013EC000703AB422DD1236813F0040F06D0174A24
:1013FC00536823F4E063E1680B435360236813F0F4
:10140C00080F07D0114A536823F46053216943EA4B
:10141C00C1035360FFF742FF0C4B5B68C3F303132C
:10142C000B4AD35CD8400B4B18600B4B1868FFF77A
:10143C00B9FC002070BD012070470120FAE70120A3
:10144C00F8E70120F6E700BF002002400010024040
:10145C00CC1A0008100000200C000020014B18686A
:10146C00704700BF1000002008B5FFF7F7FF044BD2
:10147C005B68C3F30223034AD35CD84008BD00BFAA
:10148C0000100240DC1A000808B5FFF7E7FF044B18
:10149C005B68C3F3C223034AD35CD84008BD00BFCA
:1014AC0000100240DC1A000870B582B00024A4467B
:1014BC00A6E0804DAA4210D007D97F4DAA420CD08D
:1014CC0005F58035AA4208D013E0A5F58015AA428F
:1014DC0003D005F57025AA4207D18A68002A58D096
:1014EC00012A51D04361082403E0A5F58015AA42D6
:1014FC00F3D0BEF1FF0F4ED80646BEF1FF0F4CD80D
:10150C004FEA8C0233680F25954023EA050304FA51
:10151C0002F2134333604B6813F0805F6ED0674B5D
:10152C009A6942F001029A619B6903F001030193ED
:10153C00019B4FEA9C02951C614B53F825600CF003
:10154C0003039D000F23AB4026EA03065D4B984234
:10155C0029D003F58063984200F08E8003F58063F8
:10156C00984200F08B8003F58063984219D00423D5
:10157C001AE0CC68BDE7CC680434BAE7CC68083410
:10158C00B7E7CC680C34B4E703610824B1E7002456
:10159C00AFE70424ADE7061DAFE7ACF108029200FB
:1015AC00B0E7032300E00023AB4033430232444D49
:1015BC0045F822304B6813F4801F61D0424A93687F
:1015CC0043EA0E0393604B6813F4001F5ED03E4A4F
:1015DC00D36843EA0E03D3604B6813F4003F5BD02F
:1015EC00394A536843EA0E0353604B6813F4803F47
:1015FC0058D0354A136843EA0E0313600CF1010C02
:10160C000A6832FA0CF353D0012303FA0CF302EA02
:10161C00030E33EA0202F1D14A68122A3FF649AFAF
:10162C00122A3FF666AF01A555F822F0E714000820
:10163C007F150008891500089B150008FF14000889
:10164C00FF140008FF140008FF140008FF14000822
:10165C00FF140008FF140008FF140008FF14000812
:10166C00FF140008FF140008FF140008FF14000802
:10167C00831500088F150008012395E7022393E7D3
:10168C00114A936823EA0E0393609CE70E4AD368D1
:10169C0023EA0E03D3609FE70B4A536823EA0E0339
:1016AC005360A2E7084A136823EA0E031360A5E708
:1016BC0002B070BD0000221000003110001002407A
:1016CC00000001400008014000040140074AD368B3
:1016DC0023F4E0631B041B0C000200F4E0600343E2
:1016EC0043F0BF6343F40033D360704700ED00E078
:1016FC0000B5194BDB68C3F30223C3F1070CBCF133
:10170C00040F28BF4FF0040C03F1040EBEF1060FBA
:10171C0018D9033B4FF0FF3E0EFA0CFC21EA0C01EA
:10172C0099400EFA03F322EA0303194300280BDB5A
:10173C000901C9B200F1604000F5614080F8001366
:10174C005DF804FB0023E5E700F00F000901C9B2C6
:10175C00024B1954F4E700BF00ED00E014ED00E07B
:10176C0000F01F02400901239340024A42F8203046
:10177C00704700BF00E100E00138B0F1807F0BD270
:10178C004FF0E0235861054AF02182F82310002025
:10179C00986107221A6170470120704700ED00E044
:1017AC00026802F10C0353E8003F23F490730C32EF
:1017BC0042E800310029F3D1026802F1140353E826
:1017CC00003F23F00103143242E800310029F3D129
:1017DC00036B012B05D0202380F8423000230363D8
:1017EC007047026802F10C0353E8003F23F010032A
:1017FC000C3242E800310029F3D1ECE710B5044675
:10180C000268136923F44053C1680B431361836866
:10181C000269134342691A430168CB6823F4B0533D
:10182C0023F00C031343CB600268536923F4407319
:10183C0081690B4353610268134B9A4220D0FFF726
:10184C0013FE024602EB820202EB820263689B00EB
:10185C00B2FBF3F20D48A0FB02314909642303FBF0
:10186C0011231B013233A0FB03235B0903F0F002AD
:10187C0002EB011203F00F03216813448B6010BDBF
:10188C00FFF702FE0246DDE7003801401F85EB51F1
:10189C002DE9F04383B005460E4617469946DDF810
:1018AC0028802C68246836EA04030CBF4FF0010C26
:1018BC004FF0000CBC4528D1B8F1FF3FF1D0FFF739
:1018CC00B5FAA0EB0900404523D8B8F1000F22D09F
:1018DC002B68DA6812F0040FE3D0802EE1D0402E92
:1018EC00DFD01A6812F0080FDBD0002401941A68BC
:1018FC0001925B680193019B2846FFF751FF082377
:10190C006B6485F84040012000E0002003B0BDE886
:10191C00F0830320FAE70320F8E760B310B5044620
:10192C0090F8413013B3242384F841302268D368F3
:10193C0023F40053D3602046FFF760FF226813693D
:10194C0023F4904313612268536923F02A035361F3
:10195C002268D36843F40053D360002060642023D2
:10196C0084F8413084F84230606310BD80F8403018
:10197C00FEF734FED7E7012070472DE9F04182B025
:10198C001E4690F84130DBB2202B56D104460D4652
:10199C009046002955D00AB901204FE0002343643A
:1019AC00212380F84130FFF741FA0746A4F8248040
:1019BC00A4F82680A368B3F5805F02D04FF000082E
:1019CC0014E023692BB34FF000080FE0202384F8B8
:1019DC004130032032E038F8023B2268C3F308039D
:1019EC005360E28C92B2013A92B2E284E38C9BB2E5
:1019FC0093B100963B46002280212046FFF748FF1A
:101A0C000028E3D1002DE6D015F8012B23685A608D
:101A1C00E7E7A8460025E9E700963B46002240216F
:101A2C002046FFF735FF18B9202384F8413005E034
:101A3C00202384F84130032000E0022002B0BDE8EE
:101A4C00F0810120FAE77047FFF7FDFF0B480C49C6
:101A5C000C4A002302E0D458C4500433C4188C42FE
:101A6C00F9D3094A094C002301E013600432A24265
:101A7C00FBD3FEF789FBFEF7E3FC70470000002068
:101A8C0014000020EC1A000814000020D8000020DC
:101A9C00FEE70000F8B500BFF8BC08BC9E467047D6
:0C1AAC00F8B500BFF8BC08BC9E467047AF
:101AB80002030405060708090A0B0C0D0E0F101087
:101AC8000102000000000000000000000102030401
:0C1AD800060708090000000001020304DA
:041AE4007501000880
:041AE8004D010008A4
:101AEC000D0A000052504D3A200001001000000079
:041AFC0000127A005A
:0400000508001A5580
:00000001FF
